{
  "_format": "hh-sol-artifact-1",
  "contractName": "EthBridge",
  "sourceName": "contracts/EthBridge.sol",
  "abi": [
    {
      "inputs": [
        {
          "internalType": "address",
          "name": "_endpoint",
          "type": "address"
        },
        {
          "internalType": "address",
          "name": "_delegate",
          "type": "address"
        }
      ],
      "stateMutability": "nonpayable",
      "type": "constructor"
    },
    {
      "inputs": [
        {
          "internalType": "address",
          "name": "target",
          "type": "address"
        }
      ],
      "name": "AddressEmptyCode",
      "type": "error"
    },
    {
      "inputs": [
        {
          "internalType": "address",
          "name": "account",
          "type": "address"
        }
      ],
      "name": "AddressInsufficientBalance",
      "type": "error"
    },
    {
      "inputs": [],
      "name": "FailedInnerCall",
      "type": "error"
    },
    {
      "inputs": [],
      "name": "InvalidDelegate",
      "type": "error"
    },
    {
      "inputs": [],
      "name": "InvalidEndpointCall",
      "type": "error"
    },
    {
      "inputs": [],
      "name": "LzTokenUnavailable",
      "type": "error"
    },
    {
      "inputs": [
        {
          "internalType": "uint32",
          "name": "eid",
          "type": "uint32"
        }
      ],
      "name": "NoPeer",
      "type": "error"
    },
    {
      "inputs": [
        {
          "internalType": "uint256",
          "name": "msgValue",
          "type": "uint256"
        }
      ],
      "name": "NotEnoughNative",
      "type": "error"
    },
    {
      "inputs": [
        {
          "internalType": "address",
          "name": "addr",
          "type": "address"
        }
      ],
      "name": "OnlyEndpoint",
      "type": "error"
    },
    {
      "inputs": [
        {
          "internalType": "uint32",
          "name": "eid",
          "type": "uint32"
        },
        {
          "internalType": "bytes32",
          "name": "sender",
          "type": "bytes32"
        }
      ],
      "name": "OnlyPeer",
      "type": "error"
    },
    {
      "inputs": [
        {
          "internalType": "address",
          "name": "owner",
          "type": "address"
        }
      ],
      "name": "OwnableInvalidOwner",
      "type": "error"
    },
    {
      "inputs": [
        {
          "internalType": "address",
          "name": "account",
          "type": "address"
        }
      ],
      "name": "OwnableUnauthorizedAccount",
      "type": "error"
    },
    {
      "inputs": [
        {
          "internalType": "address",
          "name": "token",
          "type": "address"
        }
      ],
      "name": "SafeERC20FailedOperation",
      "type": "error"
    },
    {
      "anonymous": false,
      "inputs": [
        {
          "indexed": false,
          "internalType": "uint32",
          "name": "_dstEid",
          "type": "uint32"
        },
        {
          "indexed": false,
          "internalType": "uint256",
          "name": "amount",
          "type": "uint256"
        },
        {
          "indexed": false,
          "internalType": "address",
          "name": "sender",
          "type": "address"
        }
      ],
      "name": "BridgeInitiated",
      "type": "event"
    },
    {
      "anonymous": false,
      "inputs": [
        {
          "indexed": true,
          "internalType": "address",
          "name": "previousOwner",
          "type": "address"
        },
        {
          "indexed": true,
          "internalType": "address",
          "name": "newOwner",
          "type": "address"
        }
      ],
      "name": "OwnershipTransferred",
      "type": "event"
    },
    {
      "anonymous": false,
      "inputs": [
        {
          "indexed": false,
          "internalType": "uint32",
          "name": "eid",
          "type": "uint32"
        },
        {
          "indexed": false,
          "internalType": "bytes32",
          "name": "peer",
          "type": "bytes32"
        }
      ],
      "name": "PeerSet",
      "type": "event"
    },
    {
      "anonymous": false,
      "inputs": [
        {
          "indexed": false,
          "internalType": "address",
          "name": "sender",
          "type": "address"
        },
        {
          "indexed": false,
          "internalType": "uint256",
          "name": "amount",
          "type": "uint256"
        }
      ],
      "name": "ReceivedOnDestination",
      "type": "event"
    },
    {
      "inputs": [
        {
          "components": [
            {
              "internalType": "uint32",
              "name": "srcEid",
              "type": "uint32"
            },
            {
              "internalType": "bytes32",
              "name": "sender",
              "type": "bytes32"
            },
            {
              "internalType": "uint64",
              "name": "nonce",
              "type": "uint64"
            }
          ],
          "internalType": "struct Origin",
          "name": "origin",
          "type": "tuple"
        }
      ],
      "name": "allowInitializePath",
      "outputs": [
        {
          "internalType": "bool",
          "name": "",
          "type": "bool"
        }
      ],
      "stateMutability": "view",
      "type": "function"
    },
    {
      "inputs": [
        {
          "internalType": "uint32",
          "name": "_dstEid",
          "type": "uint32"
        },
        {
          "internalType": "uint256",
          "name": "_amount",
          "type": "uint256"
        },
        {
          "internalType": "bytes",
          "name": "_options",
          "type": "bytes"
        }
      ],
      "name": "bridgeETH",
      "outputs": [
        {
          "components": [
            {
              "internalType": "bytes32",
              "name": "guid",
              "type": "bytes32"
            },
            {
              "internalType": "uint64",
              "name": "nonce",
              "type": "uint64"
            },
            {
              "components": [
                {
                  "internalType": "uint256",
                  "name": "nativeFee",
                  "type": "uint256"
                },
                {
                  "internalType": "uint256",
                  "name": "lzTokenFee",
                  "type": "uint256"
                }
              ],
              "internalType": "struct MessagingFee",
              "name": "fee",
              "type": "tuple"
            }
          ],
          "internalType": "struct MessagingReceipt",
          "name": "receipt",
          "type": "tuple"
        }
      ],
      "stateMutability": "payable",
      "type": "function"
    },
    {
      "inputs": [],
      "name": "endpoint",
      "outputs": [
        {
          "internalType": "contract ILayerZeroEndpointV2",
          "name": "",
          "type": "address"
        }
      ],
      "stateMutability": "view",
      "type": "function"
    },
    {
      "inputs": [
        {
          "components": [
            {
              "internalType": "uint32",
              "name": "srcEid",
              "type": "uint32"
            },
            {
              "internalType": "bytes32",
              "name": "sender",
              "type": "bytes32"
            },
            {
              "internalType": "uint64",
              "name": "nonce",
              "type": "uint64"
            }
          ],
          "internalType": "struct Origin",
          "name": "",
          "type": "tuple"
        },
        {
          "internalType": "bytes",
          "name": "",
          "type": "bytes"
        },
        {
          "internalType": "address",
          "name": "_sender",
          "type": "address"
        }
      ],
      "name": "isComposeMsgSender",
      "outputs": [
        {
          "internalType": "bool",
          "name": "",
          "type": "bool"
        }
      ],
      "stateMutability": "view",
      "type": "function"
    },
    {
      "inputs": [
        {
          "components": [
            {
              "internalType": "uint32",
              "name": "srcEid",
              "type": "uint32"
            },
            {
              "internalType": "bytes32",
              "name": "sender",
              "type": "bytes32"
            },
            {
              "internalType": "uint64",
              "name": "nonce",
              "type": "uint64"
            }
          ],
          "internalType": "struct Origin",
          "name": "_origin",
          "type": "tuple"
        },
        {
          "internalType": "bytes32",
          "name": "_guid",
          "type": "bytes32"
        },
        {
          "internalType": "bytes",
          "name": "_message",
          "type": "bytes"
        },
        {
          "internalType": "address",
          "name": "_executor",
          "type": "address"
        },
        {
          "internalType": "bytes",
          "name": "_extraData",
          "type": "bytes"
        }
      ],
      "name": "lzReceive",
      "outputs": [],
      "stateMutability": "payable",
      "type": "function"
    },
    {
      "inputs": [
        {
          "internalType": "uint32",
          "name": "",
          "type": "uint32"
        },
        {
          "internalType": "bytes32",
          "name": "",
          "type": "bytes32"
        }
      ],
      "name": "nextNonce",
      "outputs": [
        {
          "internalType": "uint64",
          "name": "nonce",
          "type": "uint64"
        }
      ],
      "stateMutability": "view",
      "type": "function"
    },
    {
      "inputs": [],
      "name": "oAppVersion",
      "outputs": [
        {
          "internalType": "uint64",
          "name": "senderVersion",
          "type": "uint64"
        },
        {
          "internalType": "uint64",
          "name": "receiverVersion",
          "type": "uint64"
        }
      ],
      "stateMutability": "pure",
      "type": "function"
    },
    {
      "inputs": [],
      "name": "owner",
      "outputs": [
        {
          "internalType": "address",
          "name": "",
          "type": "address"
        }
      ],
      "stateMutability": "view",
      "type": "function"
    },
    {
      "inputs": [
        {
          "internalType": "uint32",
          "name": "eid",
          "type": "uint32"
        }
      ],
      "name": "peers",
      "outputs": [
        {
          "internalType": "bytes32",
          "name": "peer",
          "type": "bytes32"
        }
      ],
      "stateMutability": "view",
      "type": "function"
    },
    {
      "inputs": [
        {
          "internalType": "uint32",
          "name": "_dstEid",
          "type": "uint32"
        },
        {
          "internalType": "uint256",
          "name": "_amount",
          "type": "uint256"
        },
        {
          "internalType": "bytes",
          "name": "_options",
          "type": "bytes"
        },
        {
          "internalType": "bool",
          "name": "_payInLzToken",
          "type": "bool"
        }
      ],
      "name": "quoteBridgeFee",
      "outputs": [
        {
          "components": [
            {
              "internalType": "uint256",
              "name": "nativeFee",
              "type": "uint256"
            },
            {
              "internalType": "uint256",
              "name": "lzTokenFee",
              "type": "uint256"
            }
          ],
          "internalType": "struct MessagingFee",
          "name": "fee",
          "type": "tuple"
        }
      ],
      "stateMutability": "view",
      "type": "function"
    },
    {
      "inputs": [],
      "name": "renounceOwnership",
      "outputs": [],
      "stateMutability": "nonpayable",
      "type": "function"
    },
    {
      "inputs": [
        {
          "internalType": "address",
          "name": "_delegate",
          "type": "address"
        }
      ],
      "name": "setDelegate",
      "outputs": [],
      "stateMutability": "nonpayable",
      "type": "function"
    },
    {
      "inputs": [
        {
          "internalType": "uint32",
          "name": "_eid",
          "type": "uint32"
        },
        {
          "internalType": "bytes32",
          "name": "_peer",
          "type": "bytes32"
        }
      ],
      "name": "setPeer",
      "outputs": [],
      "stateMutability": "nonpayable",
      "type": "function"
    },
    {
      "inputs": [
        {
          "internalType": "address",
          "name": "newOwner",
          "type": "address"
        }
      ],
      "name": "transferOwnership",
      "outputs": [],
      "stateMutability": "nonpayable",
      "type": "function"
    },
    {
      "inputs": [],
      "name": "withdrawETH",
      "outputs": [],
      "stateMutability": "nonpayable",
      "type": "function"
    },
    {
      "stateMutability": "payable",
      "type": "receive"
    }
  ],
  "bytecode": "0x60a06040523480156200001157600080fd5b50604051620015b2380380620015b283398101604081905262000034916200017c565b81818181806001600160a01b0381166200006857604051631e4fbdf760e01b81526000600482015260240160405180910390fd5b62000073816200010f565b506001600160a01b038083166080528116620000a257604051632d618d8160e21b815260040160405180910390fd5b60805160405163ca5eb5e160e01b81526001600160a01b0383811660048301529091169063ca5eb5e190602401600060405180830381600087803b158015620000ea57600080fd5b505af1158015620000ff573d6000803e3d6000fd5b50505050505050505050620001b4565b600080546001600160a01b038381166001600160a01b0319831681178455604051919092169283917f8be0079c531659141344cd1fd0a4f28419497f9722a3daafe3b4186f6b6457e09190a35050565b80516001600160a01b03811681146200017757600080fd5b919050565b600080604083850312156200019057600080fd5b6200019b836200015f565b9150620001ab602084016200015f565b90509250929050565b6080516113b8620001fa600039600081816101860152818161034a015281816105d7015281816107bd0152818161097d01528181610a740152610b2b01526113b86000f3fe6080604052600436106100ec5760003560e01c80637d25a05e1161008a578063ca5eb5e111610059578063ca5eb5e1146102d3578063e086e5ec146102f3578063f2fde38b14610308578063ff7bd03d1461032857600080fd5b80637d25a05e1461020257806382413eac1461023b5780638da5cb5b1461027a578063bb0b6a531461029857600080fd5b80633400288b116100c65780633400288b146101545780635e280f1114610174578063715018a6146101c05780637caac950146101d557600080fd5b806313137d65146100f857806317442b701461010d578063275621541461013457600080fd5b366100f357005b600080fd5b61010b610106366004610df6565b610348565b005b34801561011957600080fd5b50604080516001815260026020820152015b60405180910390f35b610147610142366004610eaf565b610408565b60405161012b9190610f09565b34801561016057600080fd5b5061010b61016f366004610f4c565b61052c565b34801561018057600080fd5b506101a87f000000000000000000000000000000000000000000000000000000000000000081565b6040516001600160a01b03909116815260200161012b565b3480156101cc57600080fd5b5061010b610542565b3480156101e157600080fd5b506101f56101f0366004610fd6565b610556565b60405161012b9190611096565b34801561020e57600080fd5b5061022261021d366004610f4c565b6105a7565b60405167ffffffffffffffff909116815260200161012b565b34801561024757600080fd5b5061026a6102563660046110ad565b6001600160a01b0381163014949350505050565b604051901515815260200161012b565b34801561028657600080fd5b506000546001600160a01b03166101a8565b3480156102a457600080fd5b506102c56102b3366004611114565b60016020526000908152604090205481565b60405190815260200161012b565b3480156102df57600080fd5b5061010b6102ee36600461112f565b6105b0565b3480156102ff57600080fd5b5061010b610636565b34801561031457600080fd5b5061010b61032336600461112f565b61067b565b34801561033457600080fd5b5061026a61034336600461114c565b6106b6565b7f00000000000000000000000000000000000000000000000000000000000000006001600160a01b03163314610398576040516391ac5e4f60e01b81523360048201526024015b60405180910390fd5b602087018035906103b2906103ad908a611114565b6106ec565b146103f0576103c46020880188611114565b60405163309afaf360e21b815263ffffffff90911660048201526020880135602482015260440161038f565b6103ff87878787878787610728565b50505050505050565b610410610d38565b833410156104605760405162461bcd60e51b815260206004820152601e60248201527f496e73756666696369656e742045544820666f72206272696467696e672e0000604482015260640161038f565b6040805133602082015290810185905260009060600160408051601f198184030181526020601f870181900481028401810190925285835292506104da91889184919088908890819084018382808284376000920182905250604080518082019091523481526020810191909152925033915061078a9050565b6040805163ffffffff8916815260208101889052338183015290519193507f7e4be8c4b8663973f4185dbdf571825fffc197fc634a493659f8c05d0a34a7c4919081900360600190a150949350505050565b610534610895565b61053e82826108c2565b5050565b61054a610895565b6105546000610917565b565b604080518082019091526000808252602082015260408051336020820152908101859052600090606001604051602081830303815290604052905061059d86828686610967565b9695505050505050565b60005b92915050565b6105b8610895565b60405163ca5eb5e160e01b81526001600160a01b0382811660048301527f0000000000000000000000000000000000000000000000000000000000000000169063ca5eb5e190602401600060405180830381600087803b15801561061b57600080fd5b505af115801561062f573d6000803e3d6000fd5b5050505050565b61063e610895565b600080546040516001600160a01b03909116914780156108fc02929091818181858888f19350505050158015610678573d6000803e3d6000fd5b50565b610683610895565b6001600160a01b0381166106ad57604051631e4fbdf760e01b81526000600482015260240161038f565b61067881610917565b60006020820180359060019083906106ce9086611114565b63ffffffff1681526020810191909152604001600020541492915050565b63ffffffff8116600090815260016020526040812054806105aa5760405163f6ff4fb760e01b815263ffffffff8416600482015260240161038f565b60008061073786880188611168565b604080516001600160a01b0384168152602081018390529294509092507f9055ece9d44a86bda76b7ffbee0015dcdd504bd121fe9d4afd5300275ee817be910160405180910390a1505050505050505050565b610792610d38565b60006107a18460000151610a48565b6020850151909150156107bb576107bb8460200151610a70565b7f00000000000000000000000000000000000000000000000000000000000000006001600160a01b0316632637a450826040518060a001604052808b63ffffffff16815260200161080b8c6106ec565b81526020018a815260200189815260200160008960200151111515815250866040518463ffffffff1660e01b81526004016108479291906111d6565b60806040518083038185885af1158015610865573d6000803e3d6000fd5b50505050506040513d601f19601f8201168201806040525081019061088a919061129e565b979650505050505050565b6000546001600160a01b031633146105545760405163118cdaa760e01b815233600482015260240161038f565b63ffffffff8216600081815260016020908152604091829020849055815192835282018390527f238399d427b947898edb290f5ff0f9109849b1c3ba196a42e35f00c50a54b98b910160405180910390a15050565b600080546001600160a01b038381166001600160a01b0319831681178455604051919092169283917f8be0079c531659141344cd1fd0a4f28419497f9722a3daafe3b4186f6b6457e09190a35050565b60408051808201909152600080825260208201527f00000000000000000000000000000000000000000000000000000000000000006001600160a01b031663ddc28c586040518060a001604052808863ffffffff1681526020016109ca896106ec565b8152602001878152602001868152602001851515815250306040518363ffffffff1660e01b81526004016109ff9291906111d6565b6040805180830381865afa158015610a1b573d6000803e3d6000fd5b505050506040513d601f19601f82011682018060405250810190610a3f9190611310565b95945050505050565b6000813414610a6c576040516304fb820960e51b815234600482015260240161038f565b5090565b60007f00000000000000000000000000000000000000000000000000000000000000006001600160a01b031663e4fe1d946040518163ffffffff1660e01b8152600401602060405180830381865afa158015610ad0573d6000803e3d6000fd5b505050506040513d601f19601f82011682018060405250810190610af4919061132c565b90506001600160a01b038116610b1d576040516329b99a9560e11b815260040160405180910390fd5b6040805133602482018190527f00000000000000000000000000000000000000000000000000000000000000006001600160a01b03818116604485015260648085018890528551808603909101815260849094019094526020830180516001600160e01b03166323b872dd60e01b17905261053e938516928690610ba2908590610ba8565b50505050565b6000610bbd6001600160a01b03841683610c10565b90508051600014158015610be2575080806020019051810190610be09190611349565b155b15610c0b57604051635274afe760e01b81526001600160a01b038416600482015260240161038f565b505050565b6060610c1e83836000610c25565b9392505050565b606081471015610c4a5760405163cd78605960e01b815230600482015260240161038f565b600080856001600160a01b03168486604051610c669190611366565b60006040518083038185875af1925050503d8060008114610ca3576040519150601f19603f3d011682016040523d82523d6000602084013e610ca8565b606091505b509150915061059d868383606082610cc857610cc382610d0f565b610c1e565b8151158015610cdf57506001600160a01b0384163b155b15610d0857604051639996b31560e01b81526001600160a01b038516600482015260240161038f565b5080610c1e565b805115610d1f5780518082602001fd5b604051630a12f52160e11b815260040160405180910390fd5b604051806060016040528060008019168152602001600067ffffffffffffffff168152602001610d7b604051806040016040528060008152602001600081525090565b905290565b600060608284031215610d9257600080fd5b50919050565b60008083601f840112610daa57600080fd5b50813567ffffffffffffffff811115610dc257600080fd5b602083019150836020828501011115610dda57600080fd5b9250929050565b6001600160a01b038116811461067857600080fd5b600080600080600080600060e0888a031215610e1157600080fd5b610e1b8989610d80565b965060608801359550608088013567ffffffffffffffff80821115610e3f57600080fd5b610e4b8b838c01610d98565b909750955060a08a01359150610e6082610de1565b90935060c08901359080821115610e7657600080fd5b50610e838a828b01610d98565b989b979a50959850939692959293505050565b803563ffffffff81168114610eaa57600080fd5b919050565b60008060008060608587031215610ec557600080fd5b610ece85610e96565b935060208501359250604085013567ffffffffffffffff811115610ef157600080fd5b610efd87828801610d98565b95989497509550505050565b60006080820190508251825267ffffffffffffffff60208401511660208301526040830151610f45604084018280518252602090810151910152565b5092915050565b60008060408385031215610f5f57600080fd5b610f6883610e96565b946020939093013593505050565b634e487b7160e01b600052604160045260246000fd5b604051601f8201601f1916810167ffffffffffffffff81118282101715610fb557610fb5610f76565b604052919050565b801515811461067857600080fd5b8035610eaa81610fbd565b60008060008060808587031215610fec57600080fd5b610ff585610e96565b93506020808601359350604086013567ffffffffffffffff8082111561101a57600080fd5b818801915088601f83011261102e57600080fd5b81358181111561104057611040610f76565b611052601f8201601f19168501610f8c565b9150808252898482850101111561106857600080fd5b808484018584013760008482840101525080945050505061108b60608601610fcb565b905092959194509250565b8151815260208083015190820152604081016105aa565b60008060008060a085870312156110c357600080fd5b6110cd8686610d80565b9350606085013567ffffffffffffffff8111156110e957600080fd5b6110f587828801610d98565b909450925050608085013561110981610de1565b939692955090935050565b60006020828403121561112657600080fd5b610c1e82610e96565b60006020828403121561114157600080fd5b8135610c1e81610de1565b60006060828403121561115e57600080fd5b610c1e8383610d80565b6000806040838503121561117b57600080fd5b8235610f6881610de1565b60005b838110156111a1578181015183820152602001611189565b50506000910152565b600081518084526111c2816020860160208601611186565b601f01601f19169290920160200192915050565b6040815263ffffffff8351166040820152602083015160608201526000604084015160a0608084015261120c60e08401826111aa565b90506060850151603f198483030160a085015261122982826111aa565b60809690960151151560c08501525050506001600160a01b039190911660209091015290565b60006040828403121561126157600080fd5b6040516040810181811067ffffffffffffffff8211171561128457611284610f76565b604052825181526020928301519281019290925250919050565b6000608082840312156112b057600080fd5b6040516060810167ffffffffffffffff82821081831117156112d4576112d4610f76565b81604052845183526020850151915080821682146112f157600080fd5b506020820152611304846040850161124f565b60408201529392505050565b60006040828403121561132257600080fd5b610c1e838361124f565b60006020828403121561133e57600080fd5b8151610c1e81610de1565b60006020828403121561135b57600080fd5b8151610c1e81610fbd565b60008251611378818460208701611186565b919091019291505056fea26469706673582212207ddfa59581477a90ce16ba7e68a53f895c696ab28716560afb730959995e513564736f6c63430008160033",
  "linkReferences": {},
  "deployedLinkReferences": {}
}