{
  "_format": "hh-sol-artifact-1",
  "contractName": "DonationManager",
  "sourceName": "contracts/DonationManager.sol",
  "abi": [
    {
      "inputs": [
        {
          "internalType": "address",
          "name": "_lidoContract",
          "type": "address"
        },
        {
          "internalType": "address",
          "name": "_withdrawalContract",
          "type": "address"
        },
        {
          "internalType": "address",
          "name": "_endpoint",
          "type": "address"
        },
        {
          "internalType": "address",
          "name": "_delegate",
          "type": "address"
        }
      ],
      "stateMutability": "nonpayable",
      "type": "constructor"
    },
    {
      "inputs": [],
      "name": "InvalidDelegate",
      "type": "error"
    },
    {
      "inputs": [],
      "name": "InvalidEndpointCall",
      "type": "error"
    },
    {
      "inputs": [],
      "name": "LzTokenUnavailable",
      "type": "error"
    },
    {
      "inputs": [
        {
          "internalType": "uint32",
          "name": "eid",
          "type": "uint32"
        }
      ],
      "name": "NoPeer",
      "type": "error"
    },
    {
      "inputs": [
        {
          "internalType": "uint256",
          "name": "msgValue",
          "type": "uint256"
        }
      ],
      "name": "NotEnoughNative",
      "type": "error"
    },
    {
      "inputs": [
        {
          "internalType": "address",
          "name": "addr",
          "type": "address"
        }
      ],
      "name": "OnlyEndpoint",
      "type": "error"
    },
    {
      "inputs": [
        {
          "internalType": "uint32",
          "name": "eid",
          "type": "uint32"
        },
        {
          "internalType": "bytes32",
          "name": "sender",
          "type": "bytes32"
        }
      ],
      "name": "OnlyPeer",
      "type": "error"
    },
    {
      "inputs": [
        {
          "internalType": "address",
          "name": "owner",
          "type": "address"
        }
      ],
      "name": "OwnableInvalidOwner",
      "type": "error"
    },
    {
      "inputs": [
        {
          "internalType": "address",
          "name": "account",
          "type": "address"
        }
      ],
      "name": "OwnableUnauthorizedAccount",
      "type": "error"
    },
    {
      "anonymous": false,
      "inputs": [
        {
          "indexed": false,
          "internalType": "address",
          "name": "sender",
          "type": "address"
        },
        {
          "indexed": false,
          "internalType": "uint256",
          "name": "stEthAmount",
          "type": "uint256"
        }
      ],
      "name": "Deposited",
      "type": "event"
    },
    {
      "anonymous": false,
      "inputs": [
        {
          "indexed": true,
          "internalType": "address",
          "name": "previousOwner",
          "type": "address"
        },
        {
          "indexed": true,
          "internalType": "address",
          "name": "newOwner",
          "type": "address"
        }
      ],
      "name": "OwnershipTransferred",
      "type": "event"
    },
    {
      "anonymous": false,
      "inputs": [
        {
          "indexed": false,
          "internalType": "uint32",
          "name": "eid",
          "type": "uint32"
        },
        {
          "indexed": false,
          "internalType": "bytes32",
          "name": "peer",
          "type": "bytes32"
        }
      ],
      "name": "PeerSet",
      "type": "event"
    },
    {
      "inputs": [
        {
          "internalType": "uint256",
          "name": "roundId",
          "type": "uint256"
        }
      ],
      "name": "allocations",
      "outputs": [
        {
          "internalType": "uint256",
          "name": "issueId",
          "type": "uint256"
        },
        {
          "internalType": "uint256",
          "name": "amount",
          "type": "uint256"
        }
      ],
      "stateMutability": "view",
      "type": "function"
    },
    {
      "inputs": [
        {
          "components": [
            {
              "internalType": "uint32",
              "name": "srcEid",
              "type": "uint32"
            },
            {
              "internalType": "bytes32",
              "name": "sender",
              "type": "bytes32"
            },
            {
              "internalType": "uint64",
              "name": "nonce",
              "type": "uint64"
            }
          ],
          "internalType": "struct Origin",
          "name": "origin",
          "type": "tuple"
        }
      ],
      "name": "allowInitializePath",
      "outputs": [
        {
          "internalType": "bool",
          "name": "",
          "type": "bool"
        }
      ],
      "stateMutability": "view",
      "type": "function"
    },
    {
      "inputs": [
        {
          "internalType": "address",
          "name": "sender",
          "type": "address"
        }
      ],
      "name": "deposit",
      "outputs": [],
      "stateMutability": "payable",
      "type": "function"
    },
    {
      "inputs": [
        {
          "internalType": "address",
          "name": "sender",
          "type": "address"
        }
      ],
      "name": "deposits",
      "outputs": [
        {
          "internalType": "uint256",
          "name": "",
          "type": "uint256"
        }
      ],
      "stateMutability": "view",
      "type": "function"
    },
    {
      "inputs": [],
      "name": "endpoint",
      "outputs": [
        {
          "internalType": "contract ILayerZeroEndpointV2",
          "name": "",
          "type": "address"
        }
      ],
      "stateMutability": "view",
      "type": "function"
    },
    {
      "inputs": [
        {
          "components": [
            {
              "internalType": "uint32",
              "name": "srcEid",
              "type": "uint32"
            },
            {
              "internalType": "bytes32",
              "name": "sender",
              "type": "bytes32"
            },
            {
              "internalType": "uint64",
              "name": "nonce",
              "type": "uint64"
            }
          ],
          "internalType": "struct Origin",
          "name": "",
          "type": "tuple"
        },
        {
          "internalType": "bytes",
          "name": "",
          "type": "bytes"
        },
        {
          "internalType": "address",
          "name": "_sender",
          "type": "address"
        }
      ],
      "name": "isComposeMsgSender",
      "outputs": [
        {
          "internalType": "bool",
          "name": "",
          "type": "bool"
        }
      ],
      "stateMutability": "view",
      "type": "function"
    },
    {
      "inputs": [],
      "name": "lidoContract",
      "outputs": [
        {
          "internalType": "contract ILido",
          "name": "",
          "type": "address"
        }
      ],
      "stateMutability": "view",
      "type": "function"
    },
    {
      "inputs": [],
      "name": "lidoReferral",
      "outputs": [
        {
          "internalType": "address",
          "name": "",
          "type": "address"
        }
      ],
      "stateMutability": "view",
      "type": "function"
    },
    {
      "inputs": [
        {
          "components": [
            {
              "internalType": "uint32",
              "name": "srcEid",
              "type": "uint32"
            },
            {
              "internalType": "bytes32",
              "name": "sender",
              "type": "bytes32"
            },
            {
              "internalType": "uint64",
              "name": "nonce",
              "type": "uint64"
            }
          ],
          "internalType": "struct Origin",
          "name": "_origin",
          "type": "tuple"
        },
        {
          "internalType": "bytes32",
          "name": "_guid",
          "type": "bytes32"
        },
        {
          "internalType": "bytes",
          "name": "_message",
          "type": "bytes"
        },
        {
          "internalType": "address",
          "name": "_executor",
          "type": "address"
        },
        {
          "internalType": "bytes",
          "name": "_extraData",
          "type": "bytes"
        }
      ],
      "name": "lzReceive",
      "outputs": [],
      "stateMutability": "payable",
      "type": "function"
    },
    {
      "inputs": [
        {
          "internalType": "uint32",
          "name": "",
          "type": "uint32"
        },
        {
          "internalType": "bytes32",
          "name": "",
          "type": "bytes32"
        }
      ],
      "name": "nextNonce",
      "outputs": [
        {
          "internalType": "uint64",
          "name": "nonce",
          "type": "uint64"
        }
      ],
      "stateMutability": "view",
      "type": "function"
    },
    {
      "inputs": [],
      "name": "oAppVersion",
      "outputs": [
        {
          "internalType": "uint64",
          "name": "senderVersion",
          "type": "uint64"
        },
        {
          "internalType": "uint64",
          "name": "receiverVersion",
          "type": "uint64"
        }
      ],
      "stateMutability": "pure",
      "type": "function"
    },
    {
      "inputs": [],
      "name": "owner",
      "outputs": [
        {
          "internalType": "address",
          "name": "",
          "type": "address"
        }
      ],
      "stateMutability": "view",
      "type": "function"
    },
    {
      "inputs": [
        {
          "internalType": "uint32",
          "name": "eid",
          "type": "uint32"
        }
      ],
      "name": "peers",
      "outputs": [
        {
          "internalType": "bytes32",
          "name": "peer",
          "type": "bytes32"
        }
      ],
      "stateMutability": "view",
      "type": "function"
    },
    {
      "inputs": [
        {
          "internalType": "address",
          "name": "sender",
          "type": "address"
        },
        {
          "internalType": "uint256",
          "name": "",
          "type": "uint256"
        }
      ],
      "name": "pendingWithdrawalsId",
      "outputs": [
        {
          "internalType": "uint256",
          "name": "",
          "type": "uint256"
        }
      ],
      "stateMutability": "view",
      "type": "function"
    },
    {
      "inputs": [],
      "name": "renounceOwnership",
      "outputs": [],
      "stateMutability": "nonpayable",
      "type": "function"
    },
    {
      "inputs": [
        {
          "internalType": "uint256[]",
          "name": "amount",
          "type": "uint256[]"
        }
      ],
      "name": "requestWithdrawal",
      "outputs": [],
      "stateMutability": "nonpayable",
      "type": "function"
    },
    {
      "inputs": [
        {
          "internalType": "uint256[]",
          "name": "_issueId",
          "type": "uint256[]"
        },
        {
          "internalType": "uint256[]",
          "name": "_amount",
          "type": "uint256[]"
        }
      ],
      "name": "setAllocations",
      "outputs": [],
      "stateMutability": "nonpayable",
      "type": "function"
    },
    {
      "inputs": [
        {
          "internalType": "address",
          "name": "_delegate",
          "type": "address"
        }
      ],
      "name": "setDelegate",
      "outputs": [],
      "stateMutability": "nonpayable",
      "type": "function"
    },
    {
      "inputs": [
        {
          "internalType": "uint32",
          "name": "_eid",
          "type": "uint32"
        },
        {
          "internalType": "bytes32",
          "name": "_peer",
          "type": "bytes32"
        }
      ],
      "name": "setPeer",
      "outputs": [],
      "stateMutability": "nonpayable",
      "type": "function"
    },
    {
      "inputs": [
        {
          "internalType": "address",
          "name": "newOwner",
          "type": "address"
        }
      ],
      "name": "transferOwnership",
      "outputs": [],
      "stateMutability": "nonpayable",
      "type": "function"
    },
    {
      "inputs": [],
      "name": "withdrawETH",
      "outputs": [],
      "stateMutability": "nonpayable",
      "type": "function"
    },
    {
      "inputs": [],
      "name": "withdrawalContract",
      "outputs": [
        {
          "internalType": "contract IWithdrawal",
          "name": "",
          "type": "address"
        }
      ],
      "stateMutability": "view",
      "type": "function"
    }
  ],
  "bytecode": "0x60a06040523480156200001157600080fd5b5060405162001473380380620014738339810160408190526200003491620001ba565b81818181806001600160a01b0381166200006857604051631e4fbdf760e01b81526000600482015260240160405180910390fd5b62000073816200014d565b506001600160a01b038083166080528116620000a257604051632d618d8160e21b815260040160405180910390fd5b60805160405163ca5eb5e160e01b81526001600160a01b0383811660048301529091169063ca5eb5e190602401600060405180830381600087803b158015620000ea57600080fd5b505af1158015620000ff573d6000803e3d6000fd5b5050600280546001600160a01b039b8c166001600160a01b031991821617909155600380549a909b169981169990991790995550506004805490961630179095555062000217945050505050565b600080546001600160a01b038381166001600160a01b0319831681178455604051919092169283917f8be0079c531659141344cd1fd0a4f28419497f9722a3daafe3b4186f6b6457e09190a35050565b80516001600160a01b0381168114620001b557600080fd5b919050565b60008060008060808587031215620001d157600080fd5b620001dc856200019d565b9350620001ec602086016200019d565b9250620001fc604086016200019d565b91506200020c606086016200019d565b905092959194509250565b608051611232620002416000396000818161024901528181610488015261088001526112326000f3fe6080604052600436106101355760003560e01c806382413eac116100ab578063ca5eb5e11161006f578063ca5eb5e1146103d1578063e086e5ec146103f1578063f2fde38b14610406578063f340fa0114610426578063fc7e286d14610439578063ff7bd03d1461046657600080fd5b806382413eac146102f95780638da5cb5b14610338578063bac3069114610356578063bb0b6a5314610376578063bf1b97af146103b157600080fd5b80633400288b116100fd5780633400288b146102175780635e280f1114610237578063715018a61461026b57806378945fdf146102805780637d25a05e146102a057806381842c2c146102d957600080fd5b8063047e36701461013a5780630a2642bf1461017757806313137d65146101c057806317442b70146101d557806328c93e54146101f7575b600080fd5b34801561014657600080fd5b5060045461015a906001600160a01b031681565b6040516001600160a01b0390911681526020015b60405180910390f35b34801561018357600080fd5b506101ab610192366004610cd3565b6007602052600090815260409020805460019091015482565b6040805192835260208301919091520161016e565b6101d36101ce366004610d62565b610486565b005b3480156101e157600080fd5b506040805160018152600260208201520161016e565b34801561020357600080fd5b5060025461015a906001600160a01b031681565b34801561022357600080fd5b506101d3610232366004610e1b565b610546565b34801561024357600080fd5b5061015a7f000000000000000000000000000000000000000000000000000000000000000081565b34801561027757600080fd5b506101d361055c565b34801561028c57600080fd5b506101d361029b366004610e8a565b610570565b3480156102ac57600080fd5b506102c06102bb366004610e1b565b61070b565b60405167ffffffffffffffff909116815260200161016e565b3480156102e557600080fd5b5060035461015a906001600160a01b031681565b34801561030557600080fd5b50610328610314366004610ecc565b6001600160a01b0381163014949350505050565b604051901515815260200161016e565b34801561034457600080fd5b506000546001600160a01b031661015a565b34801561036257600080fd5b506101d3610371366004610f33565b610714565b34801561038257600080fd5b506103a3610391366004610f9f565b60016020526000908152604090205481565b60405190815260200161016e565b3480156103bd57600080fd5b506103a36103cc366004610fc1565b610828565b3480156103dd57600080fd5b506101d36103ec366004610fdf565b610859565b3480156103fd57600080fd5b506101d36108d8565b34801561041257600080fd5b506101d3610421366004610fdf565b61091d565b6101d3610434366004610fdf565b610958565b34801561044557600080fd5b506103a3610454366004610fdf565b60056020526000908152604090205481565b34801561047257600080fd5b50610328610481366004610ffc565b610a6a565b7f00000000000000000000000000000000000000000000000000000000000000006001600160a01b031633146104d6576040516391ac5e4f60e01b81523360048201526024015b60405180910390fd5b602087018035906104f0906104eb908a610f9f565b610aa0565b1461052e576105026020880188610f9f565b60405163309afaf360e21b815263ffffffff9091166004820152602088013560248201526044016104cd565b61053d87878787878787610adc565b50505050505050565b61054e610c08565b6105588282610c35565b5050565b610564610c08565b61056e6000610c83565b565b8181600081811061058357610583611018565b9050602002013560056000336001600160a01b03166001600160a01b031681526020019081526020016000205410156105f55760405162461bcd60e51b8152602060048201526014602482015273496e73756666696369656e742062616c616e636560601b60448201526064016104cd565b600354604051636b34082160e11b81526000916001600160a01b03169063d66810429061062a9086908690309060040161102e565b6000604051808303816000875af1158015610649573d6000803e3d6000fd5b505050506040513d6000823e601f3d908101601f19168201604052610671919081019061108b565b90508282600081811061068657610686611018565b9050602002013560056000336001600160a01b03166001600160a01b0316815260200190815260200160002060008282546106c1919061115f565b90915550503360009081526006602052604081208251909183916106e7576106e7611018565b60209081029190910181015182546001810184556000938452919092200155505050565b60005b92915050565b61071c610c08565b8281146107835760405162461bcd60e51b815260206004820152602f60248201527f497373756520616e6420616d6f756e7420617272617973206d7573742062652060448201526e0e8d0ca40e6c2daca40d8cadccee8d608b1b60648201526084016104cd565b60015b8381116108215760405180604001604052808686848181106107aa576107aa611018565b9050602002013581526020018484848181106107c8576107c8611018565b90506020020135815250600760008787858181106107e8576107e8611018565b6020908102929092013583525081810192909252604001600020825181559101516001909101558061081981611172565b915050610786565b5050505050565b6006602052816000526040600020818154811061084457600080fd5b90600052602060002001600091509150505481565b610861610c08565b60405163ca5eb5e160e01b81526001600160a01b0382811660048301527f0000000000000000000000000000000000000000000000000000000000000000169063ca5eb5e190602401600060405180830381600087803b1580156108c457600080fd5b505af1158015610821573d6000803e3d6000fd5b6108e0610c08565b600080546040516001600160a01b03909116914780156108fc02929091818181858888f1935050505015801561091a573d6000803e3d6000fd5b50565b610925610c08565b6001600160a01b03811661094f57604051631e4fbdf760e01b8152600060048201526024016104cd565b61091a81610c83565b600034116109785760405162461bcd60e51b81526004016104cd9061118b565b6002546004805460405163a1903eab60e01b81526001600160a01b0391821692810192909252600092169063a1903eab90349060240160206040518083038185885af11580156109cc573d6000803e3d6000fd5b50505050506040513d601f19601f820116820180604052508101906109f191906111d0565b6001600160a01b038316600090815260056020526040812080549293503492909190610a1e9084906111e9565b9091555050604080516001600160a01b0384168152602081018390527f2da466a7b24304f47e87fa2e1e5a81b9831ce54fec19055ce277ca2f39ba42c491015b60405180910390a15050565b6000602082018035906001908390610a829086610f9f565b63ffffffff1681526020810191909152604001600020541492915050565b63ffffffff81166000908152600160205260408120548061070e5760405163f6ff4fb760e01b815263ffffffff841660048201526024016104cd565b600080610aeb86880188610fc1565b9150915060008111610b0f5760405162461bcd60e51b81526004016104cd9061118b565b6002546004805460405163a1903eab60e01b81526001600160a01b0391821692810192909252600092169063a1903eab90349060240160206040518083038185885af1158015610b63573d6000803e3d6000fd5b50505050506040513d601f19601f82011682018060405250810190610b8891906111d0565b6001600160a01b038416600090815260056020526040812080549293503492909190610bb59084906111e9565b9091555050604080516001600160a01b0385168152602081018390527f2da466a7b24304f47e87fa2e1e5a81b9831ce54fec19055ce277ca2f39ba42c4910160405180910390a150505050505050505050565b6000546001600160a01b0316331461056e5760405163118cdaa760e01b81523360048201526024016104cd565b63ffffffff8216600081815260016020908152604091829020849055815192835282018390527f238399d427b947898edb290f5ff0f9109849b1c3ba196a42e35f00c50a54b98b9101610a5e565b600080546001600160a01b038381166001600160a01b0319831681178455604051919092169283917f8be0079c531659141344cd1fd0a4f28419497f9722a3daafe3b4186f6b6457e09190a35050565b600060208284031215610ce557600080fd5b5035919050565b600060608284031215610cfe57600080fd5b50919050565b60008083601f840112610d1657600080fd5b50813567ffffffffffffffff811115610d2e57600080fd5b602083019150836020828501011115610d4657600080fd5b9250929050565b6001600160a01b038116811461091a57600080fd5b600080600080600080600060e0888a031215610d7d57600080fd5b610d878989610cec565b965060608801359550608088013567ffffffffffffffff80821115610dab57600080fd5b610db78b838c01610d04565b909750955060a08a01359150610dcc82610d4d565b90935060c08901359080821115610de257600080fd5b50610def8a828b01610d04565b989b979a50959850939692959293505050565b803563ffffffff81168114610e1657600080fd5b919050565b60008060408385031215610e2e57600080fd5b610e3783610e02565b946020939093013593505050565b60008083601f840112610e5757600080fd5b50813567ffffffffffffffff811115610e6f57600080fd5b6020830191508360208260051b8501011115610d4657600080fd5b60008060208385031215610e9d57600080fd5b823567ffffffffffffffff811115610eb457600080fd5b610ec085828601610e45565b90969095509350505050565b60008060008060a08587031215610ee257600080fd5b610eec8686610cec565b9350606085013567ffffffffffffffff811115610f0857600080fd5b610f1487828801610d04565b9094509250506080850135610f2881610d4d565b939692955090935050565b60008060008060408587031215610f4957600080fd5b843567ffffffffffffffff80821115610f6157600080fd5b610f6d88838901610e45565b90965094506020870135915080821115610f8657600080fd5b50610f9387828801610e45565b95989497509550505050565b600060208284031215610fb157600080fd5b610fba82610e02565b9392505050565b60008060408385031215610fd457600080fd5b8235610e3781610d4d565b600060208284031215610ff157600080fd5b8135610fba81610d4d565b60006060828403121561100e57600080fd5b610fba8383610cec565b634e487b7160e01b600052603260045260246000fd5b6040808252810183905260006001600160fb1b0384111561104e57600080fd5b8360051b808660608501376001600160a01b03939093166020830152500160600192915050565b634e487b7160e01b600052604160045260246000fd5b6000602080838503121561109e57600080fd5b825167ffffffffffffffff808211156110b657600080fd5b818501915085601f8301126110ca57600080fd5b8151818111156110dc576110dc611075565b8060051b604051601f19603f8301168101818110858211171561110157611101611075565b60405291825284820192508381018501918883111561111f57600080fd5b938501935b8285101561113d57845184529385019392850192611124565b98975050505050505050565b634e487b7160e01b600052601160045260246000fd5b8181038181111561070e5761070e611149565b60006001820161118457611184611149565b5060010190565b60208082526025908201527f4465706f73697420616d6f756e74206d75737420626520677265617465722074604082015264068616e20360dc1b606082015260800190565b6000602082840312156111e257600080fd5b5051919050565b8082018082111561070e5761070e61114956fea26469706673582212207f35c92a8e0b50a66e5cf8fe43e1f641e05025b0394b4b51122942b1cfa2918164736f6c63430008160033",
  "linkReferences": {},
  "deployedLinkReferences": {}
}